{"abi":[{"inputs":[],"stateMutability":"nonpayable","type":"constructor"},{"inputs":[{"internalType":"uint256","name":"T1","type":"uint256"},{"internalType":"uint256","name":"T2","type":"uint256"}],"name":"CheckPerformance","outputs":[],"stateMutability":"nonpayable","type":"function"},{"inputs":[],"name":"ShowBattery","outputs":[{"internalType":"string","name":"","type":"string"}],"stateMutability":"view","type":"function"}],"devdoc":{"methods":{}},"evm":{"assembly":"    /* \"EVSupplyChain.sol\":3425:4360  contract BatteryMonitoring{\r... */\n  mstore(0x40, 0x80)\n    /* \"EVSupplyChain.sol\":3535:3539  true */\n  0x01\n    /* \"EVSupplyChain.sol\":3510:3539  bool ApplicationStatus = true */\n  dup1\n  exp(0x0100, 0x14)\n  dup2\n  sload\n  dup2\n  0xff\n  mul\n  not\n  and\n  swap1\n  dup4\n  iszero\n  iszero\n  mul\n  or\n  swap1\n  sstore\n  pop\n    /* \"EVSupplyChain.sol\":3580:3650  constructor() public {\r... */\n  callvalue\n    /* \"--CODEGEN--\":8:17   */\n  dup1\n    /* \"--CODEGEN--\":5:7   */\n  iszero\n  tag_1\n  jumpi\n    /* \"--CODEGEN--\":30:31   */\n  0x00\n    /* \"--CODEGEN--\":27:28   */\n  dup1\n    /* \"--CODEGEN--\":20:32   */\n  revert\n    /* \"--CODEGEN--\":5:7   */\ntag_1:\n    /* \"EVSupplyChain.sol\":3580:3650  constructor() public {\r... */\n  pop\n    /* \"EVSupplyChain.sol\":3632:3642  msg.sender */\n  caller\n    /* \"EVSupplyChain.sol\":3614:3629  ServiceProvider */\n  0x01\n  0x00\n    /* \"EVSupplyChain.sol\":3614:3642  ServiceProvider = msg.sender */\n  0x0100\n  exp\n  dup2\n  sload\n  dup2\n  0xffffffffffffffffffffffffffffffffffffffff\n  mul\n  not\n  and\n  swap1\n  dup4\n  0xffffffffffffffffffffffffffffffffffffffff\n  and\n  mul\n  or\n  swap1\n  sstore\n  pop\n    /* \"EVSupplyChain.sol\":3425:4360  contract BatteryMonitoring{\r... */\n  dataSize(sub_0)\n  dup1\n  dataOffset(sub_0)\n  0x00\n  codecopy\n  0x00\n  return\nstop\n\nsub_0: assembly {\n        /* \"EVSupplyChain.sol\":3425:4360  contract BatteryMonitoring{\r... */\n      mstore(0x40, 0x80)\n      callvalue\n        /* \"--CODEGEN--\":8:17   */\n      dup1\n        /* \"--CODEGEN--\":5:7   */\n      iszero\n      tag_1\n      jumpi\n        /* \"--CODEGEN--\":30:31   */\n      0x00\n        /* \"--CODEGEN--\":27:28   */\n      dup1\n        /* \"--CODEGEN--\":20:32   */\n      revert\n        /* \"--CODEGEN--\":5:7   */\n    tag_1:\n        /* \"EVSupplyChain.sol\":3425:4360  contract BatteryMonitoring{\r... */\n      pop\n      jumpi(tag_2, lt(calldatasize, 0x04))\n      shr(0xe0, calldataload(0x00))\n      dup1\n      0xd1a3386b\n      eq\n      tag_3\n      jumpi\n      dup1\n      0xdb7eff58\n      eq\n      tag_4\n      jumpi\n    tag_2:\n      0x00\n      dup1\n      revert\n        /* \"EVSupplyChain.sol\":3774:4245  function CheckPerformance(uint T1, uint T2) public IsServiceProvider{\r... */\n    tag_3:\n      tag_5\n      0x04\n      dup1\n      calldatasize\n      sub\n        /* \"--CODEGEN--\":13:15   */\n      0x40\n        /* \"--CODEGEN--\":8:11   */\n      dup2\n        /* \"--CODEGEN--\":5:16   */\n      lt\n        /* \"--CODEGEN--\":2:4   */\n      iszero\n      tag_6\n      jumpi\n        /* \"--CODEGEN--\":29:30   */\n      0x00\n        /* \"--CODEGEN--\":26:27   */\n      dup1\n        /* \"--CODEGEN--\":19:31   */\n      revert\n        /* \"--CODEGEN--\":2:4   */\n    tag_6:\n        /* \"EVSupplyChain.sol\":3774:4245  function CheckPerformance(uint T1, uint T2) public IsServiceProvider{\r... */\n      dup2\n      add\n      swap1\n      dup1\n      dup1\n      calldataload\n      swap1\n      0x20\n      add\n      swap1\n      swap3\n      swap2\n      swap1\n      dup1\n      calldataload\n      swap1\n      0x20\n      add\n      swap1\n      swap3\n      swap2\n      swap1\n      pop\n      pop\n      pop\n      tag_7\n      jump\t// in\n    tag_5:\n      stop\n        /* \"EVSupplyChain.sol\":4253:4357  function ShowBattery() public view returns (string memory){\r... */\n    tag_4:\n      tag_8\n      tag_9\n      jump\t// in\n    tag_8:\n      mload(0x40)\n      dup1\n      dup1\n      0x20\n      add\n      dup3\n      dup2\n      sub\n      dup3\n      mstore\n      dup4\n      dup2\n      dup2\n      mload\n      dup2\n      mstore\n      0x20\n      add\n      swap2\n      pop\n      dup1\n      mload\n      swap1\n      0x20\n      add\n      swap1\n      dup1\n      dup4\n      dup4\n        /* \"--CODEGEN--\":23:24   */\n      0x00\n        /* \"--CODEGEN--\":8:108   */\n    tag_10:\n        /* \"--CODEGEN--\":33:36   */\n      dup4\n        /* \"--CODEGEN--\":30:31   */\n      dup2\n        /* \"--CODEGEN--\":27:37   */\n      lt\n        /* \"--CODEGEN--\":8:108   */\n      iszero\n      tag_12\n      jumpi\n        /* \"--CODEGEN--\":99:100   */\n      dup1\n        /* \"--CODEGEN--\":94:97   */\n      dup3\n        /* \"--CODEGEN--\":90:101   */\n      add\n        /* \"--CODEGEN--\":84:102   */\n      mload\n        /* \"--CODEGEN--\":80:81   */\n      dup2\n        /* \"--CODEGEN--\":75:78   */\n      dup5\n        /* \"--CODEGEN--\":71:82   */\n      add\n        /* \"--CODEGEN--\":64:103   */\n      mstore\n        /* \"--CODEGEN--\":52:54   */\n      0x20\n        /* \"--CODEGEN--\":49:50   */\n      dup2\n        /* \"--CODEGEN--\":45:55   */\n      add\n        /* \"--CODEGEN--\":40:55   */\n      swap1\n      pop\n        /* \"--CODEGEN--\":8:108   */\n      jump(tag_10)\n    tag_12:\n        /* \"--CODEGEN--\":12:26   */\n      pop\n        /* \"EVSupplyChain.sol\":4253:4357  function ShowBattery() public view returns (string memory){\r... */\n      pop\n      pop\n      pop\n      swap1\n      pop\n      swap1\n      dup2\n      add\n      swap1\n      0x1f\n      and\n      dup1\n      iszero\n      tag_13\n      jumpi\n      dup1\n      dup3\n      sub\n      dup1\n      mload\n      0x01\n      dup4\n      0x20\n      sub\n      0x0100\n      exp\n      sub\n      not\n      and\n      dup2\n      mstore\n      0x20\n      add\n      swap2\n      pop\n    tag_13:\n      pop\n      swap3\n      pop\n      pop\n      pop\n      mload(0x40)\n      dup1\n      swap2\n      sub\n      swap1\n      return\n        /* \"EVSupplyChain.sol\":3774:4245  function CheckPerformance(uint T1, uint T2) public IsServiceProvider{\r... */\n    tag_7:\n        /* \"EVSupplyChain.sol\":3730:3745  ServiceProvider */\n      0x01\n      0x00\n      swap1\n      sload\n      swap1\n      0x0100\n      exp\n      swap1\n      div\n      0xffffffffffffffffffffffffffffffffffffffff\n      and\n        /* \"EVSupplyChain.sol\":3716:3745  msg.sender == ServiceProvider */\n      0xffffffffffffffffffffffffffffffffffffffff\n      and\n        /* \"EVSupplyChain.sol\":3716:3726  msg.sender */\n      caller\n        /* \"EVSupplyChain.sol\":3716:3745  msg.sender == ServiceProvider */\n      0xffffffffffffffffffffffffffffffffffffffff\n      and\n      eq\n        /* \"EVSupplyChain.sol\":3708:3746  require(msg.sender == ServiceProvider) */\n      tag_15\n      jumpi\n      0x00\n      dup1\n      revert\n    tag_15:\n        /* \"EVSupplyChain.sol\":3882:3886  true */\n      0x01\n        /* \"EVSupplyChain.sol\":3861:3886  ApplicationStatus == true */\n      iszero\n      iszero\n        /* \"EVSupplyChain.sol\":3861:3878  ApplicationStatus */\n      0x01\n      0x14\n      swap1\n      sload\n      swap1\n      0x0100\n      exp\n      swap1\n      div\n      0xff\n      and\n        /* \"EVSupplyChain.sol\":3861:3886  ApplicationStatus == true */\n      iszero\n      iszero\n      eq\n        /* \"EVSupplyChain.sol\":3853:3887  require(ApplicationStatus == true) */\n      tag_17\n      jumpi\n      0x00\n      dup1\n      revert\n    tag_17:\n        /* \"EVSupplyChain.sol\":3908:3910  T1 */\n      dup2\n        /* \"EVSupplyChain.sol\":3902:3904  T2 */\n      dup2\n        /* \"EVSupplyChain.sol\":3902:3910  T2 == T1 */\n      eq\n        /* \"EVSupplyChain.sol\":3898:4238  if (T2 == T1)\r... */\n      iszero\n      tag_18\n      jumpi\n        /* \"EVSupplyChain.sol\":3936:3986  BatteryPerformance = \"Battery Performance is good\" */\n      mload(0x40)\n      dup1\n      0x40\n      add\n      0x40\n      mstore\n      dup1\n      0x1b\n      dup2\n      mstore\n      0x20\n      add\n      0x4261747465727920506572666f726d616e636520697320676f6f640000000000\n      dup2\n      mstore\n      pop\n        /* \"EVSupplyChain.sol\":3936:3954  BatteryPerformance */\n      0x02\n        /* \"EVSupplyChain.sol\":3936:3986  BatteryPerformance = \"Battery Performance is good\" */\n      swap1\n      dup1\n      mload\n      swap1\n      0x20\n      add\n      swap1\n      tag_19\n      swap3\n      swap2\n      swap1\n      tag_20\n      jump\t// in\n    tag_19:\n      pop\n        /* \"EVSupplyChain.sol\":3898:4238  if (T2 == T1)\r... */\n      jump(tag_21)\n    tag_18:\n        /* \"EVSupplyChain.sol\":4022:4024  T1 */\n      dup2\n        /* \"EVSupplyChain.sol\":4017:4019  T2 */\n      dup2\n        /* \"EVSupplyChain.sol\":4017:4024  T2 > T1 */\n      gt\n        /* \"EVSupplyChain.sol\":4017:4035  T2 > T1 && T2 >= 7 */\n      dup1\n      iszero\n      tag_22\n      jumpi\n      pop\n        /* \"EVSupplyChain.sol\":4034:4035  7 */\n      0x07\n        /* \"EVSupplyChain.sol\":4028:4030  T2 */\n      dup2\n        /* \"EVSupplyChain.sol\":4028:4035  T2 >= 7 */\n      lt\n      iszero\n        /* \"EVSupplyChain.sol\":4017:4035  T2 > T1 && T2 >= 7 */\n    tag_22:\n        /* \"EVSupplyChain.sol\":4017:4046  T2 > T1 && T2 >= 7 && T2 <=10 */\n      dup1\n      iszero\n      tag_23\n      jumpi\n      pop\n        /* \"EVSupplyChain.sol\":4044:4046  10 */\n      0x0a\n        /* \"EVSupplyChain.sol\":4039:4041  T2 */\n      dup2\n        /* \"EVSupplyChain.sol\":4039:4046  T2 <=10 */\n      gt\n      iszero\n        /* \"EVSupplyChain.sol\":4017:4046  T2 > T1 && T2 >= 7 && T2 <=10 */\n    tag_23:\n        /* \"EVSupplyChain.sol\":4013:4238  if (T2 > T1 && T2 >= 7 && T2 <=10)\r... */\n      iszero\n      tag_24\n      jumpi\n        /* \"EVSupplyChain.sol\":4072:4151  BatteryPerformance = \"Battery Performance is poor, need service or replacement\" */\n      mload(0x40)\n      dup1\n      0x60\n      add\n      0x40\n      mstore\n      dup1\n      0x38\n      dup2\n      mstore\n      0x20\n      add\n      data_ba052dc3bc0d666c1e305ce6385f86ac59a4277464e3c938295fe443c4d710a8\n      0x38\n      swap2\n      codecopy\n        /* \"EVSupplyChain.sol\":4072:4090  BatteryPerformance */\n      0x02\n        /* \"EVSupplyChain.sol\":4072:4151  BatteryPerformance = \"Battery Performance is poor, need service or replacement\" */\n      swap1\n      dup1\n      mload\n      swap1\n      0x20\n      add\n      swap1\n      tag_25\n      swap3\n      swap2\n      swap1\n      tag_20\n      jump\t// in\n    tag_25:\n      pop\n        /* \"EVSupplyChain.sol\":4013:4238  if (T2 > T1 && T2 >= 7 && T2 <=10)\r... */\n      jump(tag_26)\n    tag_24:\n        /* \"EVSupplyChain.sol\":4203:4226  BatteryPerformance = \"\" */\n      mload(0x40)\n      dup1\n      0x20\n      add\n      0x40\n      mstore\n      dup1\n      0x00\n      dup2\n      mstore\n      pop\n        /* \"EVSupplyChain.sol\":4203:4221  BatteryPerformance */\n      0x02\n        /* \"EVSupplyChain.sol\":4203:4226  BatteryPerformance = \"\" */\n      swap1\n      dup1\n      mload\n      swap1\n      0x20\n      add\n      swap1\n      tag_27\n      swap3\n      swap2\n      swap1\n      tag_20\n      jump\t// in\n    tag_27:\n      pop\n        /* \"EVSupplyChain.sol\":4013:4238  if (T2 > T1 && T2 >= 7 && T2 <=10)\r... */\n    tag_26:\n        /* \"EVSupplyChain.sol\":3898:4238  if (T2 == T1)\r... */\n    tag_21:\n        /* \"EVSupplyChain.sol\":3774:4245  function CheckPerformance(uint T1, uint T2) public IsServiceProvider{\r... */\n      pop\n      pop\n      jump\t// out\n        /* \"EVSupplyChain.sol\":4253:4357  function ShowBattery() public view returns (string memory){\r... */\n    tag_9:\n        /* \"EVSupplyChain.sol\":4297:4310  string memory */\n      0x60\n        /* \"EVSupplyChain.sol\":4331:4349  BatteryPerformance */\n      0x02\n        /* \"EVSupplyChain.sol\":4324:4349  return BatteryPerformance */\n      dup1\n      sload\n      0x01\n      dup2\n      0x01\n      and\n      iszero\n      0x0100\n      mul\n      sub\n      and\n      0x02\n      swap1\n      div\n      dup1\n      0x1f\n      add\n      0x20\n      dup1\n      swap2\n      div\n      mul\n      0x20\n      add\n      mload(0x40)\n      swap1\n      dup2\n      add\n      0x40\n      mstore\n      dup1\n      swap3\n      swap2\n      swap1\n      dup2\n      dup2\n      mstore\n      0x20\n      add\n      dup3\n      dup1\n      sload\n      0x01\n      dup2\n      0x01\n      and\n      iszero\n      0x0100\n      mul\n      sub\n      and\n      0x02\n      swap1\n      div\n      dup1\n      iszero\n      tag_29\n      jumpi\n      dup1\n      0x1f\n      lt\n      tag_30\n      jumpi\n      0x0100\n      dup1\n      dup4\n      sload\n      div\n      mul\n      dup4\n      mstore\n      swap2\n      0x20\n      add\n      swap2\n      jump(tag_29)\n    tag_30:\n      dup3\n      add\n      swap2\n      swap1\n      0x00\n      mstore\n      keccak256(0x00, 0x20)\n      swap1\n    tag_31:\n      dup2\n      sload\n      dup2\n      mstore\n      swap1\n      0x01\n      add\n      swap1\n      0x20\n      add\n      dup1\n      dup4\n      gt\n      tag_31\n      jumpi\n      dup3\n      swap1\n      sub\n      0x1f\n      and\n      dup3\n      add\n      swap2\n    tag_29:\n      pop\n      pop\n      pop\n      pop\n      pop\n      swap1\n      pop\n        /* \"EVSupplyChain.sol\":4253:4357  function ShowBattery() public view returns (string memory){\r... */\n      swap1\n      jump\t// out\n        /* \"EVSupplyChain.sol\":3425:4360  contract BatteryMonitoring{\r... */\n    tag_20:\n      dup3\n      dup1\n      sload\n      0x01\n      dup2\n      0x01\n      and\n      iszero\n      0x0100\n      mul\n      sub\n      and\n      0x02\n      swap1\n      div\n      swap1\n      0x00\n      mstore\n      keccak256(0x00, 0x20)\n      swap1\n      0x1f\n      add\n      0x20\n      swap1\n      div\n      dup2\n      add\n      swap3\n      dup3\n      0x1f\n      lt\n      tag_33\n      jumpi\n      dup1\n      mload\n      not(0xff)\n      and\n      dup4\n      dup1\n      add\n      or\n      dup6\n      sstore\n      jump(tag_32)\n    tag_33:\n      dup3\n      dup1\n      add\n      0x01\n      add\n      dup6\n      sstore\n      dup3\n      iszero\n      tag_32\n      jumpi\n      swap2\n      dup3\n      add\n    tag_34:\n      dup3\n      dup2\n      gt\n      iszero\n      tag_35\n      jumpi\n      dup3\n      mload\n      dup3\n      sstore\n      swap2\n      0x20\n      add\n      swap2\n      swap1\n      0x01\n      add\n      swap1\n      jump(tag_34)\n    tag_35:\n    tag_32:\n      pop\n      swap1\n      pop\n      tag_36\n      swap2\n      swap1\n      tag_37\n      jump\t// in\n    tag_36:\n      pop\n      swap1\n      jump\t// out\n    tag_37:\n      tag_38\n      swap2\n      swap1\n    tag_39:\n      dup1\n      dup3\n      gt\n      iszero\n      tag_40\n      jumpi\n      0x00\n      dup2\n      0x00\n      swap1\n      sstore\n      pop\n      0x01\n      add\n      jump(tag_39)\n    tag_40:\n      pop\n      swap1\n      jump\n    tag_38:\n      swap1\n      jump\t// out\n    stop\n    data_ba052dc3bc0d666c1e305ce6385f86ac59a4277464e3c938295fe443c4d710a8 4261747465727920506572666f726d616e636520697320706f6f722c206e6565642073657276696365206f72207265706c6163656d656e74\n\n    auxdata: 0xa2646970667358221220ddf3de1ca98842b81549e44e1c39d53087acb47af3b99962860cd500ad895fc364736f6c63430006000033\n}\n","bytecode":{"linkReferences":{},"object":"608060405260018060146101000a81548160ff02191690831515021790555034801561002a57600080fd5b5033600160006101000a81548173ffffffffffffffffffffffffffffffffffffffff021916908373ffffffffffffffffffffffffffffffffffffffff1602179055506104008061007b6000396000f3fe608060405234801561001057600080fd5b50600436106100365760003560e01c8063d1a3386b1461003b578063db7eff5814610073575b600080fd5b6100716004803603604081101561005157600080fd5b8101908080359060200190929190803590602001909291905050506100f6565b005b61007b61024b565b6040518080602001828103825283818151815260200191508051906020019080838360005b838110156100bb5780820151818401526020810190506100a0565b50505050905090810190601f1680156100e85780820380516001836020036101000a031916815260200191505b509250505060405180910390f35b600160009054906101000a900473ffffffffffffffffffffffffffffffffffffffff1673ffffffffffffffffffffffffffffffffffffffff163373ffffffffffffffffffffffffffffffffffffffff161461015057600080fd5b60011515600160149054906101000a900460ff1615151461017057600080fd5b818114156101c9576040518060400160405280601b81526020017f4261747465727920506572666f726d616e636520697320676f6f640000000000815250600290805190602001906101c39291906102ed565b50610247565b81811180156101d9575060078110155b80156101e65750600a8111155b1561021f5760405180606001604052806038815260200161039360389139600290805190602001906102199291906102ed565b50610246565b60405180602001604052806000815250600290805190602001906102449291906102ed565b505b5b5050565b606060028054600181600116156101000203166002900480601f0160208091040260200160405190810160405280929190818152602001828054600181600116156101000203166002900480156102e35780601f106102b8576101008083540402835291602001916102e3565b820191906000526020600020905b8154815290600101906020018083116102c657829003601f168201915b5050505050905090565b828054600181600116156101000203166002900490600052602060002090601f016020900481019282601f1061032e57805160ff191683800117855561035c565b8280016001018555821561035c579182015b8281111561035b578251825591602001919060010190610340565b5b509050610369919061036d565b5090565b61038f91905b8082111561038b576000816000905550600101610373565b5090565b9056fe4261747465727920506572666f726d616e636520697320706f6f722c206e6565642073657276696365206f72207265706c6163656d656e74a2646970667358221220ddf3de1ca98842b81549e44e1c39d53087acb47af3b99962860cd500ad895fc364736f6c63430006000033","opcodes":"PUSH1 0x80 PUSH1 0x40 MSTORE PUSH1 0x1 DUP1 PUSH1 0x14 PUSH2 0x100 EXP DUP2 SLOAD DUP2 PUSH1 0xFF MUL NOT AND SWAP1 DUP4 ISZERO ISZERO MUL OR SWAP1 SSTORE POP CALLVALUE DUP1 ISZERO PUSH2 0x2A JUMPI PUSH1 0x0 DUP1 REVERT JUMPDEST POP CALLER PUSH1 0x1 PUSH1 0x0 PUSH2 0x100 EXP DUP2 SLOAD DUP2 PUSH20 0xFFFFFFFFFFFFFFFFFFFFFFFFFFFFFFFFFFFFFFFF MUL NOT AND SWAP1 DUP4 PUSH20 0xFFFFFFFFFFFFFFFFFFFFFFFFFFFFFFFFFFFFFFFF AND MUL OR SWAP1 SSTORE POP PUSH2 0x400 DUP1 PUSH2 0x7B PUSH1 0x0 CODECOPY PUSH1 0x0 RETURN INVALID PUSH1 0x80 PUSH1 0x40 MSTORE CALLVALUE DUP1 ISZERO PUSH2 0x10 JUMPI PUSH1 0x0 DUP1 REVERT JUMPDEST POP PUSH1 0x4 CALLDATASIZE LT PUSH2 0x36 JUMPI PUSH1 0x0 CALLDATALOAD PUSH1 0xE0 SHR DUP1 PUSH4 0xD1A3386B EQ PUSH2 0x3B JUMPI DUP1 PUSH4 0xDB7EFF58 EQ PUSH2 0x73 JUMPI JUMPDEST PUSH1 0x0 DUP1 REVERT JUMPDEST PUSH2 0x71 PUSH1 0x4 DUP1 CALLDATASIZE SUB PUSH1 0x40 DUP2 LT ISZERO PUSH2 0x51 JUMPI PUSH1 0x0 DUP1 REVERT JUMPDEST DUP2 ADD SWAP1 DUP1 DUP1 CALLDATALOAD SWAP1 PUSH1 0x20 ADD SWAP1 SWAP3 SWAP2 SWAP1 DUP1 CALLDATALOAD SWAP1 PUSH1 0x20 ADD SWAP1 SWAP3 SWAP2 SWAP1 POP POP POP PUSH2 0xF6 JUMP JUMPDEST STOP JUMPDEST PUSH2 0x7B PUSH2 0x24B JUMP JUMPDEST PUSH1 0x40 MLOAD DUP1 DUP1 PUSH1 0x20 ADD DUP3 DUP2 SUB DUP3 MSTORE DUP4 DUP2 DUP2 MLOAD DUP2 MSTORE PUSH1 0x20 ADD SWAP2 POP DUP1 MLOAD SWAP1 PUSH1 0x20 ADD SWAP1 DUP1 DUP4 DUP4 PUSH1 0x0 JUMPDEST DUP4 DUP2 LT ISZERO PUSH2 0xBB JUMPI DUP1 DUP3 ADD MLOAD DUP2 DUP5 ADD MSTORE PUSH1 0x20 DUP2 ADD SWAP1 POP PUSH2 0xA0 JUMP JUMPDEST POP POP POP POP SWAP1 POP SWAP1 DUP2 ADD SWAP1 PUSH1 0x1F AND DUP1 ISZERO PUSH2 0xE8 JUMPI DUP1 DUP3 SUB DUP1 MLOAD PUSH1 0x1 DUP4 PUSH1 0x20 SUB PUSH2 0x100 EXP SUB NOT AND DUP2 MSTORE PUSH1 0x20 ADD SWAP2 POP JUMPDEST POP SWAP3 POP POP POP PUSH1 0x40 MLOAD DUP1 SWAP2 SUB SWAP1 RETURN JUMPDEST PUSH1 0x1 PUSH1 0x0 SWAP1 SLOAD SWAP1 PUSH2 0x100 EXP SWAP1 DIV PUSH20 0xFFFFFFFFFFFFFFFFFFFFFFFFFFFFFFFFFFFFFFFF AND PUSH20 0xFFFFFFFFFFFFFFFFFFFFFFFFFFFFFFFFFFFFFFFF AND CALLER PUSH20 0xFFFFFFFFFFFFFFFFFFFFFFFFFFFFFFFFFFFFFFFF AND EQ PUSH2 0x150 JUMPI PUSH1 0x0 DUP1 REVERT JUMPDEST PUSH1 0x1 ISZERO ISZERO PUSH1 0x1 PUSH1 0x14 SWAP1 SLOAD SWAP1 PUSH2 0x100 EXP SWAP1 DIV PUSH1 0xFF AND ISZERO ISZERO EQ PUSH2 0x170 JUMPI PUSH1 0x0 DUP1 REVERT JUMPDEST DUP2 DUP2 EQ ISZERO PUSH2 0x1C9 JUMPI PUSH1 0x40 MLOAD DUP1 PUSH1 0x40 ADD PUSH1 0x40 MSTORE DUP1 PUSH1 0x1B DUP2 MSTORE PUSH1 0x20 ADD PUSH32 0x4261747465727920506572666F726D616E636520697320676F6F640000000000 DUP2 MSTORE POP PUSH1 0x2 SWAP1 DUP1 MLOAD SWAP1 PUSH1 0x20 ADD SWAP1 PUSH2 0x1C3 SWAP3 SWAP2 SWAP1 PUSH2 0x2ED JUMP JUMPDEST POP PUSH2 0x247 JUMP JUMPDEST DUP2 DUP2 GT DUP1 ISZERO PUSH2 0x1D9 JUMPI POP PUSH1 0x7 DUP2 LT ISZERO JUMPDEST DUP1 ISZERO PUSH2 0x1E6 JUMPI POP PUSH1 0xA DUP2 GT ISZERO JUMPDEST ISZERO PUSH2 0x21F JUMPI PUSH1 0x40 MLOAD DUP1 PUSH1 0x60 ADD PUSH1 0x40 MSTORE DUP1 PUSH1 0x38 DUP2 MSTORE PUSH1 0x20 ADD PUSH2 0x393 PUSH1 0x38 SWAP2 CODECOPY PUSH1 0x2 SWAP1 DUP1 MLOAD SWAP1 PUSH1 0x20 ADD SWAP1 PUSH2 0x219 SWAP3 SWAP2 SWAP1 PUSH2 0x2ED JUMP JUMPDEST POP PUSH2 0x246 JUMP JUMPDEST PUSH1 0x40 MLOAD DUP1 PUSH1 0x20 ADD PUSH1 0x40 MSTORE DUP1 PUSH1 0x0 DUP2 MSTORE POP PUSH1 0x2 SWAP1 DUP1 MLOAD SWAP1 PUSH1 0x20 ADD SWAP1 PUSH2 0x244 SWAP3 SWAP2 SWAP1 PUSH2 0x2ED JUMP JUMPDEST POP JUMPDEST JUMPDEST POP POP JUMP JUMPDEST PUSH1 0x60 PUSH1 0x2 DUP1 SLOAD PUSH1 0x1 DUP2 PUSH1 0x1 AND ISZERO PUSH2 0x100 MUL SUB AND PUSH1 0x2 SWAP1 DIV DUP1 PUSH1 0x1F ADD PUSH1 0x20 DUP1 SWAP2 DIV MUL PUSH1 0x20 ADD PUSH1 0x40 MLOAD SWAP1 DUP2 ADD PUSH1 0x40 MSTORE DUP1 SWAP3 SWAP2 SWAP1 DUP2 DUP2 MSTORE PUSH1 0x20 ADD DUP3 DUP1 SLOAD PUSH1 0x1 DUP2 PUSH1 0x1 AND ISZERO PUSH2 0x100 MUL SUB AND PUSH1 0x2 SWAP1 DIV DUP1 ISZERO PUSH2 0x2E3 JUMPI DUP1 PUSH1 0x1F LT PUSH2 0x2B8 JUMPI PUSH2 0x100 DUP1 DUP4 SLOAD DIV MUL DUP4 MSTORE SWAP2 PUSH1 0x20 ADD SWAP2 PUSH2 0x2E3 JUMP JUMPDEST DUP3 ADD SWAP2 SWAP1 PUSH1 0x0 MSTORE PUSH1 0x20 PUSH1 0x0 KECCAK256 SWAP1 JUMPDEST DUP2 SLOAD DUP2 MSTORE SWAP1 PUSH1 0x1 ADD SWAP1 PUSH1 0x20 ADD DUP1 DUP4 GT PUSH2 0x2C6 JUMPI DUP3 SWAP1 SUB PUSH1 0x1F AND DUP3 ADD SWAP2 JUMPDEST POP POP POP POP POP SWAP1 POP SWAP1 JUMP JUMPDEST DUP3 DUP1 SLOAD PUSH1 0x1 DUP2 PUSH1 0x1 AND ISZERO PUSH2 0x100 MUL SUB AND PUSH1 0x2 SWAP1 DIV SWAP1 PUSH1 0x0 MSTORE PUSH1 0x20 PUSH1 0x0 KECCAK256 SWAP1 PUSH1 0x1F ADD PUSH1 0x20 SWAP1 DIV DUP2 ADD SWAP3 DUP3 PUSH1 0x1F LT PUSH2 0x32E JUMPI DUP1 MLOAD PUSH1 0xFF NOT AND DUP4 DUP1 ADD OR DUP6 SSTORE PUSH2 0x35C JUMP JUMPDEST DUP3 DUP1 ADD PUSH1 0x1 ADD DUP6 SSTORE DUP3 ISZERO PUSH2 0x35C JUMPI SWAP2 DUP3 ADD JUMPDEST DUP3 DUP2 GT ISZERO PUSH2 0x35B JUMPI DUP3 MLOAD DUP3 SSTORE SWAP2 PUSH1 0x20 ADD SWAP2 SWAP1 PUSH1 0x1 ADD SWAP1 PUSH2 0x340 JUMP JUMPDEST JUMPDEST POP SWAP1 POP PUSH2 0x369 SWAP2 SWAP1 PUSH2 0x36D JUMP JUMPDEST POP SWAP1 JUMP JUMPDEST PUSH2 0x38F SWAP2 SWAP1 JUMPDEST DUP1 DUP3 GT ISZERO PUSH2 0x38B JUMPI PUSH1 0x0 DUP2 PUSH1 0x0 SWAP1 SSTORE POP PUSH1 0x1 ADD PUSH2 0x373 JUMP JUMPDEST POP SWAP1 JUMP JUMPDEST SWAP1 JUMP INVALID TIMESTAMP PUSH2 0x7474 PUSH6 0x727920506572 PUSH7 0x6F726D616E6365 KECCAK256 PUSH10 0x7320706F6F722C206E65 PUSH6 0x642073657276 PUSH10 0x6365206F72207265706C PUSH2 0x6365 PUSH14 0x656E74A2646970667358221220DD RETURN 0xDE SHR 0xA9 DUP9 TIMESTAMP 0xB8 ISZERO 0x49 0xE4 0x4E SHR CODECOPY 0xD5 ADDRESS DUP8 0xAC 0xB4 PUSH27 0xF3B99962860CD500AD895FC364736F6C6343000600003300000000 "},"gasEstimates":{"creation":{"codeDepositCost":"204800","executionCost":"42028","totalCost":"246828"},"external":{"CheckPerformance(uint256,uint256)":"infinite","ShowBattery()":"infinite"}},"methodIdentifiers":{"CheckPerformance(uint256,uint256)":"d1a3386b","ShowBattery()":"db7eff58"}},"storageLayout":{"storage":[{"astId":309,"contract":"EVSupplyChain.sol:BatteryMonitoring","label":"Buyer","offset":0,"slot":"0","type":"t_address"},{"astId":311,"contract":"EVSupplyChain.sol:BatteryMonitoring","label":"ServiceProvider","offset":0,"slot":"1","type":"t_address"},{"astId":314,"contract":"EVSupplyChain.sol:BatteryMonitoring","label":"ApplicationStatus","offset":20,"slot":"1","type":"t_bool"},{"astId":316,"contract":"EVSupplyChain.sol:BatteryMonitoring","label":"BatteryPerformance","offset":0,"slot":"2","type":"t_string_storage"}],"types":{"t_address":{"encoding":"inplace","label":"address","numberOfBytes":"20"},"t_bool":{"encoding":"inplace","label":"bool","numberOfBytes":"1"},"t_string_storage":{"encoding":"bytes","label":"string","numberOfBytes":"32"}}},"userdoc":{"methods":{}}}