{"abi":[{"inputs":[],"stateMutability":"payable","type":"constructor"},{"inputs":[],"name":"ApprovalStatus","outputs":[{"internalType":"string","name":"","type":"string"}],"stateMutability":"view","type":"function"},{"inputs":[],"name":"GenerateEVAddress","outputs":[],"stateMutability":"nonpayable","type":"function"},{"inputs":[],"name":"RegisterDistributor","outputs":[],"stateMutability":"nonpayable","type":"function"},{"inputs":[],"name":"SetApplicationStatus","outputs":[],"stateMutability":"nonpayable","type":"function"},{"inputs":[],"name":"VehicleApproval","outputs":[],"stateMutability":"nonpayable","type":"function"}],"devdoc":{"methods":{}},"evm":{"assembly":"    /* \"EVSupplyChain.sol\":2044:3421  contract EVPurchase{\r... */\n  mstore(0x40, 0x80)\n    /* \"EVSupplyChain.sol\":2180:2185  false */\n  0x00\n    /* \"EVSupplyChain.sol\":2155:2185  bool ApplicationStatus = false */\n  0x02\n  exp(0x0100, 0x14)\n  dup2\n  sload\n  dup2\n  0xff\n  mul\n  not\n  and\n  swap1\n  dup4\n  iszero\n  iszero\n  mul\n  or\n  swap1\n  sstore\n  pop\n    /* \"EVSupplyChain.sol\":2320:2329  0.1 ether */\n  0x016345785d8a0000\n    /* \"EVSupplyChain.sol\":2308:2317  msg.value */\n  callvalue\n    /* \"EVSupplyChain.sol\":2308:2329  msg.value > 0.1 ether */\n  gt\n    /* \"EVSupplyChain.sol\":2299:2330  require (msg.value > 0.1 ether) */\n  tag_3\n  jumpi\n  0x00\n  dup1\n  revert\ntag_3:\n    /* \"EVSupplyChain.sol\":2356:2366  msg.sender */\n  caller\n    /* \"EVSupplyChain.sol\":2341:2353  Manufacturer */\n  0x00\n  dup1\n    /* \"EVSupplyChain.sol\":2341:2366  Manufacturer = msg.sender */\n  0x0100\n  exp\n  dup2\n  sload\n  dup2\n  0xffffffffffffffffffffffffffffffffffffffff\n  mul\n  not\n  and\n  swap1\n  dup4\n  0xffffffffffffffffffffffffffffffffffffffff\n  and\n  mul\n  or\n  swap1\n  sstore\n  pop\n    /* \"EVSupplyChain.sol\":2044:3421  contract EVPurchase{\r... */\n  dataSize(sub_0)\n  dup1\n  dataOffset(sub_0)\n  0x00\n  codecopy\n  0x00\n  return\nstop\n\nsub_0: assembly {\n        /* \"EVSupplyChain.sol\":2044:3421  contract EVPurchase{\r... */\n      mstore(0x40, 0x80)\n      callvalue\n        /* \"--CODEGEN--\":8:17   */\n      dup1\n        /* \"--CODEGEN--\":5:7   */\n      iszero\n      tag_1\n      jumpi\n        /* \"--CODEGEN--\":30:31   */\n      0x00\n        /* \"--CODEGEN--\":27:28   */\n      dup1\n        /* \"--CODEGEN--\":20:32   */\n      revert\n        /* \"--CODEGEN--\":5:7   */\n    tag_1:\n        /* \"EVSupplyChain.sol\":2044:3421  contract EVPurchase{\r... */\n      pop\n      jumpi(tag_2, lt(calldatasize, 0x04))\n      shr(0xe0, calldataload(0x00))\n      dup1\n      0x0250f922\n      eq\n      tag_3\n      jumpi\n      dup1\n      0x2a9e9141\n      eq\n      tag_4\n      jumpi\n      dup1\n      0x5e84ab17\n      eq\n      tag_5\n      jumpi\n      dup1\n      0x7169b7ee\n      eq\n      tag_6\n      jumpi\n      dup1\n      0x75afc08d\n      eq\n      tag_7\n      jumpi\n    tag_2:\n      0x00\n      dup1\n      revert\n        /* \"EVSupplyChain.sol\":2720:2898  function GenerateEVAddress() public IsManufacturer{\r... */\n    tag_3:\n      tag_8\n      tag_9\n      jump\t// in\n    tag_8:\n      stop\n        /* \"EVSupplyChain.sol\":2383:2464  function RegisterDistributor() public {\r... */\n    tag_4:\n      tag_10\n      tag_11\n      jump\t// in\n    tag_10:\n      stop\n        /* \"EVSupplyChain.sol\":3011:3302  function VehicleApproval() public IsDistributor{\r... */\n    tag_5:\n      tag_12\n      tag_13\n      jump\t// in\n    tag_12:\n      stop\n        /* \"EVSupplyChain.sol\":2906:3003  function SetApplicationStatus() public IsDistributor{\r... */\n    tag_6:\n      tag_14\n      tag_15\n      jump\t// in\n    tag_14:\n      stop\n        /* \"EVSupplyChain.sol\":3310:3418  function ApprovalStatus() public view returns (string memory){\r... */\n    tag_7:\n      tag_16\n      tag_17\n      jump\t// in\n    tag_16:\n      mload(0x40)\n      dup1\n      dup1\n      0x20\n      add\n      dup3\n      dup2\n      sub\n      dup3\n      mstore\n      dup4\n      dup2\n      dup2\n      mload\n      dup2\n      mstore\n      0x20\n      add\n      swap2\n      pop\n      dup1\n      mload\n      swap1\n      0x20\n      add\n      swap1\n      dup1\n      dup4\n      dup4\n        /* \"--CODEGEN--\":23:24   */\n      0x00\n        /* \"--CODEGEN--\":8:108   */\n    tag_18:\n        /* \"--CODEGEN--\":33:36   */\n      dup4\n        /* \"--CODEGEN--\":30:31   */\n      dup2\n        /* \"--CODEGEN--\":27:37   */\n      lt\n        /* \"--CODEGEN--\":8:108   */\n      iszero\n      tag_20\n      jumpi\n        /* \"--CODEGEN--\":99:100   */\n      dup1\n        /* \"--CODEGEN--\":94:97   */\n      dup3\n        /* \"--CODEGEN--\":90:101   */\n      add\n        /* \"--CODEGEN--\":84:102   */\n      mload\n        /* \"--CODEGEN--\":80:81   */\n      dup2\n        /* \"--CODEGEN--\":75:78   */\n      dup5\n        /* \"--CODEGEN--\":71:82   */\n      add\n        /* \"--CODEGEN--\":64:103   */\n      mstore\n        /* \"--CODEGEN--\":52:54   */\n      0x20\n        /* \"--CODEGEN--\":49:50   */\n      dup2\n        /* \"--CODEGEN--\":45:55   */\n      add\n        /* \"--CODEGEN--\":40:55   */\n      swap1\n      pop\n        /* \"--CODEGEN--\":8:108   */\n      jump(tag_18)\n    tag_20:\n        /* \"--CODEGEN--\":12:26   */\n      pop\n        /* \"EVSupplyChain.sol\":3310:3418  function ApprovalStatus() public view returns (string memory){\r... */\n      pop\n      pop\n      pop\n      swap1\n      pop\n      swap1\n      dup2\n      add\n      swap1\n      0x1f\n      and\n      dup1\n      iszero\n      tag_21\n      jumpi\n      dup1\n      dup3\n      sub\n      dup1\n      mload\n      0x01\n      dup4\n      0x20\n      sub\n      0x0100\n      exp\n      sub\n      not\n      and\n      dup2\n      mstore\n      0x20\n      add\n      swap2\n      pop\n    tag_21:\n      pop\n      swap3\n      pop\n      pop\n      pop\n      mload(0x40)\n      dup1\n      swap2\n      sub\n      swap1\n      return\n        /* \"EVSupplyChain.sol\":2720:2898  function GenerateEVAddress() public IsManufacturer{\r... */\n    tag_9:\n        /* \"EVSupplyChain.sol\":2533:2545  Manufacturer */\n      0x00\n      dup1\n      swap1\n      sload\n      swap1\n      0x0100\n      exp\n      swap1\n      div\n      0xffffffffffffffffffffffffffffffffffffffff\n      and\n        /* \"EVSupplyChain.sol\":2519:2545  msg.sender == Manufacturer */\n      0xffffffffffffffffffffffffffffffffffffffff\n      and\n        /* \"EVSupplyChain.sol\":2519:2529  msg.sender */\n      caller\n        /* \"EVSupplyChain.sol\":2519:2545  msg.sender == Manufacturer */\n      0xffffffffffffffffffffffffffffffffffffffff\n      and\n      eq\n        /* \"EVSupplyChain.sol\":2511:2570  require(msg.sender == Manufacturer,\"Sender not authorized\") */\n      tag_23\n      jumpi\n      mload(0x40)\n      0x08c379a000000000000000000000000000000000000000000000000000000000\n      dup2\n      mstore\n      0x04\n      add\n      dup1\n      dup1\n      0x20\n      add\n      dup3\n      dup2\n      sub\n      dup3\n      mstore\n      0x15\n      dup2\n      mstore\n      0x20\n      add\n      dup1\n      0x53656e646572206e6f7420617574686f72697a65640000000000000000000000\n      dup2\n      mstore\n      pop\n      0x20\n      add\n      swap2\n      pop\n      pop\n      mload(0x40)\n      dup1\n      swap2\n      sub\n      swap1\n      revert\n    tag_23:\n        /* \"EVSupplyChain.sol\":2844:2847  now */\n      timestamp\n        /* \"EVSupplyChain.sol\":2827:2848  abi.encodePacked(now) */\n      add(0x20, mload(0x40))\n      dup1\n      dup3\n      dup2\n      mstore\n      0x20\n      add\n      swap2\n      pop\n      pop\n      mload(0x40)\n        /* \"--CODEGEN--\":49:53   */\n      0x20\n        /* \"--CODEGEN--\":39:46   */\n      dup2\n        /* \"--CODEGEN--\":30:37   */\n      dup4\n        /* \"--CODEGEN--\":26:47   */\n      sub\n        /* \"--CODEGEN--\":22:54   */\n      sub\n        /* \"--CODEGEN--\":13:20   */\n      dup2\n        /* \"--CODEGEN--\":6:55   */\n      mstore\n        /* \"EVSupplyChain.sol\":2827:2848  abi.encodePacked(now) */\n      swap1\n      0x40\n      mstore\n        /* \"EVSupplyChain.sol\":2817:2849  keccak256(abi.encodePacked(now)) */\n      dup1\n      mload\n      swap1\n      0x20\n      add\n      keccak256\n        /* \"EVSupplyChain.sol\":2801:2851  address(bytes20(keccak256(abi.encodePacked(now)))) */\n      0x60\n      shr\n        /* \"EVSupplyChain.sol\":2783:2798  ElectricVehicle */\n      0x01\n      0x00\n        /* \"EVSupplyChain.sol\":2783:2851  ElectricVehicle = address(bytes20(keccak256(abi.encodePacked(now)))) */\n      0x0100\n      exp\n      dup2\n      sload\n      dup2\n      0xffffffffffffffffffffffffffffffffffffffff\n      mul\n      not\n      and\n      swap1\n      dup4\n      0xffffffffffffffffffffffffffffffffffffffff\n      and\n      mul\n      or\n      swap1\n      sstore\n      pop\n        /* \"EVSupplyChain.sol\":2886:2890  true */\n      0x01\n        /* \"EVSupplyChain.sol\":2862:2883  RoadTransportApproval */\n      0x02\n      0x15\n        /* \"EVSupplyChain.sol\":2862:2890  RoadTransportApproval = true */\n      0x0100\n      exp\n      dup2\n      sload\n      dup2\n      0xff\n      mul\n      not\n      and\n      swap1\n      dup4\n      iszero\n      iszero\n      mul\n      or\n      swap1\n      sstore\n      pop\n        /* \"EVSupplyChain.sol\":2720:2898  function GenerateEVAddress() public IsManufacturer{\r... */\n      jump\t// out\n        /* \"EVSupplyChain.sol\":2383:2464  function RegisterDistributor() public {\r... */\n    tag_11:\n        /* \"EVSupplyChain.sol\":2446:2456  msg.sender */\n      caller\n        /* \"EVSupplyChain.sol\":2432:2443  Distributor */\n      0x02\n      0x00\n        /* \"EVSupplyChain.sol\":2432:2456  Distributor = msg.sender */\n      0x0100\n      exp\n      dup2\n      sload\n      dup2\n      0xffffffffffffffffffffffffffffffffffffffff\n      mul\n      not\n      and\n      swap1\n      dup4\n      0xffffffffffffffffffffffffffffffffffffffff\n      and\n      mul\n      or\n      swap1\n      sstore\n      pop\n        /* \"EVSupplyChain.sol\":2383:2464  function RegisterDistributor() public {\r... */\n      jump\t// out\n        /* \"EVSupplyChain.sol\":3011:3302  function VehicleApproval() public IsDistributor{\r... */\n    tag_13:\n        /* \"EVSupplyChain.sol\":2658:2669  Distributor */\n      0x02\n      0x00\n      swap1\n      sload\n      swap1\n      0x0100\n      exp\n      swap1\n      div\n      0xffffffffffffffffffffffffffffffffffffffff\n      and\n        /* \"EVSupplyChain.sol\":2644:2669  msg.sender == Distributor */\n      0xffffffffffffffffffffffffffffffffffffffff\n      and\n        /* \"EVSupplyChain.sol\":2644:2654  msg.sender */\n      caller\n        /* \"EVSupplyChain.sol\":2644:2669  msg.sender == Distributor */\n      0xffffffffffffffffffffffffffffffffffffffff\n      and\n      eq\n        /* \"EVSupplyChain.sol\":2636:2694  require(msg.sender == Distributor,\"Sender not authorized\") */\n      tag_27\n      jumpi\n      mload(0x40)\n      0x08c379a000000000000000000000000000000000000000000000000000000000\n      dup2\n      mstore\n      0x04\n      add\n      dup1\n      dup1\n      0x20\n      add\n      dup3\n      dup2\n      sub\n      dup3\n      mstore\n      0x15\n      dup2\n      mstore\n      0x20\n      add\n      dup1\n      0x53656e646572206e6f7420617574686f72697a65640000000000000000000000\n      dup2\n      mstore\n      pop\n      0x20\n      add\n      swap2\n      pop\n      pop\n      mload(0x40)\n      dup1\n      swap2\n      sub\n      swap1\n      revert\n    tag_27:\n        /* \"EVSupplyChain.sol\":3075:3096  RoadTransportApproval */\n      0x02\n      0x15\n      swap1\n      sload\n      swap1\n      0x0100\n      exp\n      swap1\n      div\n      0xff\n      and\n        /* \"EVSupplyChain.sol\":3071:3295  if (RoadTransportApproval)\r... */\n      iszero\n      tag_29\n      jumpi\n        /* \"EVSupplyChain.sol\":3122:3176  ApplicationApproval = \"Approved with five star rating\" */\n      mload(0x40)\n      dup1\n      0x40\n      add\n      0x40\n      mstore\n      dup1\n      0x1e\n      dup2\n      mstore\n      0x20\n      add\n      0x417070726f76656420776974682066697665207374617220726174696e670000\n      dup2\n      mstore\n      pop\n        /* \"EVSupplyChain.sol\":3122:3141  ApplicationApproval */\n      0x03\n        /* \"EVSupplyChain.sol\":3122:3176  ApplicationApproval = \"Approved with five star rating\" */\n      swap1\n      dup1\n      mload\n      swap1\n      0x20\n      add\n      swap1\n      tag_30\n      swap3\n      swap2\n      swap1\n      tag_31\n      jump\t// in\n    tag_30:\n      pop\n        /* \"EVSupplyChain.sol\":3071:3295  if (RoadTransportApproval)\r... */\n      jump(tag_32)\n    tag_29:\n        /* \"EVSupplyChain.sol\":3227:3283  ApplicationApproval = \"Vehicle not recommended to buyer\" */\n      mload(0x40)\n      dup1\n      0x40\n      add\n      0x40\n      mstore\n      dup1\n      0x20\n      dup2\n      mstore\n      0x20\n      add\n      0x56656869636c65206e6f74207265636f6d6d656e64656420746f206275796572\n      dup2\n      mstore\n      pop\n        /* \"EVSupplyChain.sol\":3227:3246  ApplicationApproval */\n      0x03\n        /* \"EVSupplyChain.sol\":3227:3283  ApplicationApproval = \"Vehicle not recommended to buyer\" */\n      swap1\n      dup1\n      mload\n      swap1\n      0x20\n      add\n      swap1\n      tag_33\n      swap3\n      swap2\n      swap1\n      tag_31\n      jump\t// in\n    tag_33:\n      pop\n        /* \"EVSupplyChain.sol\":3071:3295  if (RoadTransportApproval)\r... */\n    tag_32:\n        /* \"EVSupplyChain.sol\":3011:3302  function VehicleApproval() public IsDistributor{\r... */\n      jump\t// out\n        /* \"EVSupplyChain.sol\":2906:3003  function SetApplicationStatus() public IsDistributor{\r... */\n    tag_15:\n        /* \"EVSupplyChain.sol\":2658:2669  Distributor */\n      0x02\n      0x00\n      swap1\n      sload\n      swap1\n      0x0100\n      exp\n      swap1\n      div\n      0xffffffffffffffffffffffffffffffffffffffff\n      and\n        /* \"EVSupplyChain.sol\":2644:2669  msg.sender == Distributor */\n      0xffffffffffffffffffffffffffffffffffffffff\n      and\n        /* \"EVSupplyChain.sol\":2644:2654  msg.sender */\n      caller\n        /* \"EVSupplyChain.sol\":2644:2669  msg.sender == Distributor */\n      0xffffffffffffffffffffffffffffffffffffffff\n      and\n      eq\n        /* \"EVSupplyChain.sol\":2636:2694  require(msg.sender == Distributor,\"Sender not authorized\") */\n      tag_35\n      jumpi\n      mload(0x40)\n      0x08c379a000000000000000000000000000000000000000000000000000000000\n      dup2\n      mstore\n      0x04\n      add\n      dup1\n      dup1\n      0x20\n      add\n      dup3\n      dup2\n      sub\n      dup3\n      mstore\n      0x15\n      dup2\n      mstore\n      0x20\n      add\n      dup1\n      0x53656e646572206e6f7420617574686f72697a65640000000000000000000000\n      dup2\n      mstore\n      pop\n      0x20\n      add\n      swap2\n      pop\n      pop\n      mload(0x40)\n      dup1\n      swap2\n      sub\n      swap1\n      revert\n    tag_35:\n        /* \"EVSupplyChain.sol\":2991:2995  true */\n      0x01\n        /* \"EVSupplyChain.sol\":2971:2988  ApplicationStatus */\n      0x02\n      0x14\n        /* \"EVSupplyChain.sol\":2971:2995  ApplicationStatus = true */\n      0x0100\n      exp\n      dup2\n      sload\n      dup2\n      0xff\n      mul\n      not\n      and\n      swap1\n      dup4\n      iszero\n      iszero\n      mul\n      or\n      swap1\n      sstore\n      pop\n        /* \"EVSupplyChain.sol\":2906:3003  function SetApplicationStatus() public IsDistributor{\r... */\n      jump\t// out\n        /* \"EVSupplyChain.sol\":3310:3418  function ApprovalStatus() public view returns (string memory){\r... */\n    tag_17:\n        /* \"EVSupplyChain.sol\":3357:3370  string memory */\n      0x60\n        /* \"EVSupplyChain.sol\":3391:3410  ApplicationApproval */\n      0x03\n        /* \"EVSupplyChain.sol\":3384:3410  return ApplicationApproval */\n      dup1\n      sload\n      0x01\n      dup2\n      0x01\n      and\n      iszero\n      0x0100\n      mul\n      sub\n      and\n      0x02\n      swap1\n      div\n      dup1\n      0x1f\n      add\n      0x20\n      dup1\n      swap2\n      div\n      mul\n      0x20\n      add\n      mload(0x40)\n      swap1\n      dup2\n      add\n      0x40\n      mstore\n      dup1\n      swap3\n      swap2\n      swap1\n      dup2\n      dup2\n      mstore\n      0x20\n      add\n      dup3\n      dup1\n      sload\n      0x01\n      dup2\n      0x01\n      and\n      iszero\n      0x0100\n      mul\n      sub\n      and\n      0x02\n      swap1\n      div\n      dup1\n      iszero\n      tag_38\n      jumpi\n      dup1\n      0x1f\n      lt\n      tag_39\n      jumpi\n      0x0100\n      dup1\n      dup4\n      sload\n      div\n      mul\n      dup4\n      mstore\n      swap2\n      0x20\n      add\n      swap2\n      jump(tag_38)\n    tag_39:\n      dup3\n      add\n      swap2\n      swap1\n      0x00\n      mstore\n      keccak256(0x00, 0x20)\n      swap1\n    tag_40:\n      dup2\n      sload\n      dup2\n      mstore\n      swap1\n      0x01\n      add\n      swap1\n      0x20\n      add\n      dup1\n      dup4\n      gt\n      tag_40\n      jumpi\n      dup3\n      swap1\n      sub\n      0x1f\n      and\n      dup3\n      add\n      swap2\n    tag_38:\n      pop\n      pop\n      pop\n      pop\n      pop\n      swap1\n      pop\n        /* \"EVSupplyChain.sol\":3310:3418  function ApprovalStatus() public view returns (string memory){\r... */\n      swap1\n      jump\t// out\n        /* \"EVSupplyChain.sol\":2044:3421  contract EVPurchase{\r... */\n    tag_31:\n      dup3\n      dup1\n      sload\n      0x01\n      dup2\n      0x01\n      and\n      iszero\n      0x0100\n      mul\n      sub\n      and\n      0x02\n      swap1\n      div\n      swap1\n      0x00\n      mstore\n      keccak256(0x00, 0x20)\n      swap1\n      0x1f\n      add\n      0x20\n      swap1\n      div\n      dup2\n      add\n      swap3\n      dup3\n      0x1f\n      lt\n      tag_42\n      jumpi\n      dup1\n      mload\n      not(0xff)\n      and\n      dup4\n      dup1\n      add\n      or\n      dup6\n      sstore\n      jump(tag_41)\n    tag_42:\n      dup3\n      dup1\n      add\n      0x01\n      add\n      dup6\n      sstore\n      dup3\n      iszero\n      tag_41\n      jumpi\n      swap2\n      dup3\n      add\n    tag_43:\n      dup3\n      dup2\n      gt\n      iszero\n      tag_44\n      jumpi\n      dup3\n      mload\n      dup3\n      sstore\n      swap2\n      0x20\n      add\n      swap2\n      swap1\n      0x01\n      add\n      swap1\n      jump(tag_43)\n    tag_44:\n    tag_41:\n      pop\n      swap1\n      pop\n      tag_45\n      swap2\n      swap1\n      tag_46\n      jump\t// in\n    tag_45:\n      pop\n      swap1\n      jump\t// out\n    tag_46:\n      tag_47\n      swap2\n      swap1\n    tag_48:\n      dup1\n      dup3\n      gt\n      iszero\n      tag_49\n      jumpi\n      0x00\n      dup2\n      0x00\n      swap1\n      sstore\n      pop\n      0x01\n      add\n      jump(tag_48)\n    tag_49:\n      pop\n      swap1\n      jump\n    tag_47:\n      swap1\n      jump\t// out\n\n    auxdata: 0xa26469706673582212200d11e2891e558729902eb68033dd72c61ad08da92e8b360350bb06e8e680267364736f6c63430006000033\n}\n","bytecode":{"linkReferences":{},"object":"60806040526000600260146101000a81548160ff02191690831515021790555067016345785d8a0000341161003357600080fd5b336000806101000a81548173ffffffffffffffffffffffffffffffffffffffff021916908373ffffffffffffffffffffffffffffffffffffffff160217905550610668806100826000396000f3fe608060405234801561001057600080fd5b50600436106100575760003560e01c80630250f9221461005c5780632a9e9141146100665780635e84ab17146100705780637169b7ee1461007a57806375afc08d14610084575b600080fd5b610064610107565b005b61006e610250565b005b610078610293565b005b61008261040b565b005b61008c6104eb565b6040518080602001828103825283818151815260200191508051906020019080838360005b838110156100cc5780820151818401526020810190506100b1565b50505050905090810190601f1680156100f95780820380516001836020036101000a031916815260200191505b509250505060405180910390f35b6000809054906101000a900473ffffffffffffffffffffffffffffffffffffffff1673ffffffffffffffffffffffffffffffffffffffff163373ffffffffffffffffffffffffffffffffffffffff16146101c9576040517f08c379a00000000000000000000000000000000000000000000000000000000081526004018080602001828103825260158152602001807f53656e646572206e6f7420617574686f72697a6564000000000000000000000081525060200191505060405180910390fd5b42604051602001808281526020019150506040516020818303038152906040528051906020012060601c600160006101000a81548173ffffffffffffffffffffffffffffffffffffffff021916908373ffffffffffffffffffffffffffffffffffffffff1602179055506001600260156101000a81548160ff021916908315150217905550565b33600260006101000a81548173ffffffffffffffffffffffffffffffffffffffff021916908373ffffffffffffffffffffffffffffffffffffffff160217905550565b600260009054906101000a900473ffffffffffffffffffffffffffffffffffffffff1673ffffffffffffffffffffffffffffffffffffffff163373ffffffffffffffffffffffffffffffffffffffff1614610356576040517f08c379a00000000000000000000000000000000000000000000000000000000081526004018080602001828103825260158152602001807f53656e646572206e6f7420617574686f72697a6564000000000000000000000081525060200191505060405180910390fd5b600260159054906101000a900460ff16156103bc576040518060400160405280601e81526020017f417070726f76656420776974682066697665207374617220726174696e670000815250600390805190602001906103b692919061058d565b50610409565b6040518060400160405280602081526020017f56656869636c65206e6f74207265636f6d6d656e64656420746f2062757965728152506003908051906020019061040792919061058d565b505b565b600260009054906101000a900473ffffffffffffffffffffffffffffffffffffffff1673ffffffffffffffffffffffffffffffffffffffff163373ffffffffffffffffffffffffffffffffffffffff16146104ce576040517f08c379a00000000000000000000000000000000000000000000000000000000081526004018080602001828103825260158152602001807f53656e646572206e6f7420617574686f72697a6564000000000000000000000081525060200191505060405180910390fd5b6001600260146101000a81548160ff021916908315150217905550565b606060038054600181600116156101000203166002900480601f0160208091040260200160405190810160405280929190818152602001828054600181600116156101000203166002900480156105835780601f1061055857610100808354040283529160200191610583565b820191906000526020600020905b81548152906001019060200180831161056657829003601f168201915b5050505050905090565b828054600181600116156101000203166002900490600052602060002090601f016020900481019282601f106105ce57805160ff19168380011785556105fc565b828001600101855582156105fc579182015b828111156105fb5782518255916020019190600101906105e0565b5b509050610609919061060d565b5090565b61062f91905b8082111561062b576000816000905550600101610613565b5090565b9056fea26469706673582212200d11e2891e558729902eb68033dd72c61ad08da92e8b360350bb06e8e680267364736f6c63430006000033","opcodes":"PUSH1 0x80 PUSH1 0x40 MSTORE PUSH1 0x0 PUSH1 0x2 PUSH1 0x14 PUSH2 0x100 EXP DUP2 SLOAD DUP2 PUSH1 0xFF MUL NOT AND SWAP1 DUP4 ISZERO ISZERO MUL OR SWAP1 SSTORE POP PUSH8 0x16345785D8A0000 CALLVALUE GT PUSH2 0x33 JUMPI PUSH1 0x0 DUP1 REVERT JUMPDEST CALLER PUSH1 0x0 DUP1 PUSH2 0x100 EXP DUP2 SLOAD DUP2 PUSH20 0xFFFFFFFFFFFFFFFFFFFFFFFFFFFFFFFFFFFFFFFF MUL NOT AND SWAP1 DUP4 PUSH20 0xFFFFFFFFFFFFFFFFFFFFFFFFFFFFFFFFFFFFFFFF AND MUL OR SWAP1 SSTORE POP PUSH2 0x668 DUP1 PUSH2 0x82 PUSH1 0x0 CODECOPY PUSH1 0x0 RETURN INVALID PUSH1 0x80 PUSH1 0x40 MSTORE CALLVALUE DUP1 ISZERO PUSH2 0x10 JUMPI PUSH1 0x0 DUP1 REVERT JUMPDEST POP PUSH1 0x4 CALLDATASIZE LT PUSH2 0x57 JUMPI PUSH1 0x0 CALLDATALOAD PUSH1 0xE0 SHR DUP1 PUSH4 0x250F922 EQ PUSH2 0x5C JUMPI DUP1 PUSH4 0x2A9E9141 EQ PUSH2 0x66 JUMPI DUP1 PUSH4 0x5E84AB17 EQ PUSH2 0x70 JUMPI DUP1 PUSH4 0x7169B7EE EQ PUSH2 0x7A JUMPI DUP1 PUSH4 0x75AFC08D EQ PUSH2 0x84 JUMPI JUMPDEST PUSH1 0x0 DUP1 REVERT JUMPDEST PUSH2 0x64 PUSH2 0x107 JUMP JUMPDEST STOP JUMPDEST PUSH2 0x6E PUSH2 0x250 JUMP JUMPDEST STOP JUMPDEST PUSH2 0x78 PUSH2 0x293 JUMP JUMPDEST STOP JUMPDEST PUSH2 0x82 PUSH2 0x40B JUMP JUMPDEST STOP JUMPDEST PUSH2 0x8C PUSH2 0x4EB JUMP JUMPDEST PUSH1 0x40 MLOAD DUP1 DUP1 PUSH1 0x20 ADD DUP3 DUP2 SUB DUP3 MSTORE DUP4 DUP2 DUP2 MLOAD DUP2 MSTORE PUSH1 0x20 ADD SWAP2 POP DUP1 MLOAD SWAP1 PUSH1 0x20 ADD SWAP1 DUP1 DUP4 DUP4 PUSH1 0x0 JUMPDEST DUP4 DUP2 LT ISZERO PUSH2 0xCC JUMPI DUP1 DUP3 ADD MLOAD DUP2 DUP5 ADD MSTORE PUSH1 0x20 DUP2 ADD SWAP1 POP PUSH2 0xB1 JUMP JUMPDEST POP POP POP POP SWAP1 POP SWAP1 DUP2 ADD SWAP1 PUSH1 0x1F AND DUP1 ISZERO PUSH2 0xF9 JUMPI DUP1 DUP3 SUB DUP1 MLOAD PUSH1 0x1 DUP4 PUSH1 0x20 SUB PUSH2 0x100 EXP SUB NOT AND DUP2 MSTORE PUSH1 0x20 ADD SWAP2 POP JUMPDEST POP SWAP3 POP POP POP PUSH1 0x40 MLOAD DUP1 SWAP2 SUB SWAP1 RETURN JUMPDEST PUSH1 0x0 DUP1 SWAP1 SLOAD SWAP1 PUSH2 0x100 EXP SWAP1 DIV PUSH20 0xFFFFFFFFFFFFFFFFFFFFFFFFFFFFFFFFFFFFFFFF AND PUSH20 0xFFFFFFFFFFFFFFFFFFFFFFFFFFFFFFFFFFFFFFFF AND CALLER PUSH20 0xFFFFFFFFFFFFFFFFFFFFFFFFFFFFFFFFFFFFFFFF AND EQ PUSH2 0x1C9 JUMPI PUSH1 0x40 MLOAD PUSH32 0x8C379A000000000000000000000000000000000000000000000000000000000 DUP2 MSTORE PUSH1 0x4 ADD DUP1 DUP1 PUSH1 0x20 ADD DUP3 DUP2 SUB DUP3 MSTORE PUSH1 0x15 DUP2 MSTORE PUSH1 0x20 ADD DUP1 PUSH32 0x53656E646572206E6F7420617574686F72697A65640000000000000000000000 DUP2 MSTORE POP PUSH1 0x20 ADD SWAP2 POP POP PUSH1 0x40 MLOAD DUP1 SWAP2 SUB SWAP1 REVERT JUMPDEST TIMESTAMP PUSH1 0x40 MLOAD PUSH1 0x20 ADD DUP1 DUP3 DUP2 MSTORE PUSH1 0x20 ADD SWAP2 POP POP PUSH1 0x40 MLOAD PUSH1 0x20 DUP2 DUP4 SUB SUB DUP2 MSTORE SWAP1 PUSH1 0x40 MSTORE DUP1 MLOAD SWAP1 PUSH1 0x20 ADD KECCAK256 PUSH1 0x60 SHR PUSH1 0x1 PUSH1 0x0 PUSH2 0x100 EXP DUP2 SLOAD DUP2 PUSH20 0xFFFFFFFFFFFFFFFFFFFFFFFFFFFFFFFFFFFFFFFF MUL NOT AND SWAP1 DUP4 PUSH20 0xFFFFFFFFFFFFFFFFFFFFFFFFFFFFFFFFFFFFFFFF AND MUL OR SWAP1 SSTORE POP PUSH1 0x1 PUSH1 0x2 PUSH1 0x15 PUSH2 0x100 EXP DUP2 SLOAD DUP2 PUSH1 0xFF MUL NOT AND SWAP1 DUP4 ISZERO ISZERO MUL OR SWAP1 SSTORE POP JUMP JUMPDEST CALLER PUSH1 0x2 PUSH1 0x0 PUSH2 0x100 EXP DUP2 SLOAD DUP2 PUSH20 0xFFFFFFFFFFFFFFFFFFFFFFFFFFFFFFFFFFFFFFFF MUL NOT AND SWAP1 DUP4 PUSH20 0xFFFFFFFFFFFFFFFFFFFFFFFFFFFFFFFFFFFFFFFF AND MUL OR SWAP1 SSTORE POP JUMP JUMPDEST PUSH1 0x2 PUSH1 0x0 SWAP1 SLOAD SWAP1 PUSH2 0x100 EXP SWAP1 DIV PUSH20 0xFFFFFFFFFFFFFFFFFFFFFFFFFFFFFFFFFFFFFFFF AND PUSH20 0xFFFFFFFFFFFFFFFFFFFFFFFFFFFFFFFFFFFFFFFF AND CALLER PUSH20 0xFFFFFFFFFFFFFFFFFFFFFFFFFFFFFFFFFFFFFFFF AND EQ PUSH2 0x356 JUMPI PUSH1 0x40 MLOAD PUSH32 0x8C379A000000000000000000000000000000000000000000000000000000000 DUP2 MSTORE PUSH1 0x4 ADD DUP1 DUP1 PUSH1 0x20 ADD DUP3 DUP2 SUB DUP3 MSTORE PUSH1 0x15 DUP2 MSTORE PUSH1 0x20 ADD DUP1 PUSH32 0x53656E646572206E6F7420617574686F72697A65640000000000000000000000 DUP2 MSTORE POP PUSH1 0x20 ADD SWAP2 POP POP PUSH1 0x40 MLOAD DUP1 SWAP2 SUB SWAP1 REVERT JUMPDEST PUSH1 0x2 PUSH1 0x15 SWAP1 SLOAD SWAP1 PUSH2 0x100 EXP SWAP1 DIV PUSH1 0xFF AND ISZERO PUSH2 0x3BC JUMPI PUSH1 0x40 MLOAD DUP1 PUSH1 0x40 ADD PUSH1 0x40 MSTORE DUP1 PUSH1 0x1E DUP2 MSTORE PUSH1 0x20 ADD PUSH32 0x417070726F76656420776974682066697665207374617220726174696E670000 DUP2 MSTORE POP PUSH1 0x3 SWAP1 DUP1 MLOAD SWAP1 PUSH1 0x20 ADD SWAP1 PUSH2 0x3B6 SWAP3 SWAP2 SWAP1 PUSH2 0x58D JUMP JUMPDEST POP PUSH2 0x409 JUMP JUMPDEST PUSH1 0x40 MLOAD DUP1 PUSH1 0x40 ADD PUSH1 0x40 MSTORE DUP1 PUSH1 0x20 DUP2 MSTORE PUSH1 0x20 ADD PUSH32 0x56656869636C65206E6F74207265636F6D6D656E64656420746F206275796572 DUP2 MSTORE POP PUSH1 0x3 SWAP1 DUP1 MLOAD SWAP1 PUSH1 0x20 ADD SWAP1 PUSH2 0x407 SWAP3 SWAP2 SWAP1 PUSH2 0x58D JUMP JUMPDEST POP JUMPDEST JUMP JUMPDEST PUSH1 0x2 PUSH1 0x0 SWAP1 SLOAD SWAP1 PUSH2 0x100 EXP SWAP1 DIV PUSH20 0xFFFFFFFFFFFFFFFFFFFFFFFFFFFFFFFFFFFFFFFF AND PUSH20 0xFFFFFFFFFFFFFFFFFFFFFFFFFFFFFFFFFFFFFFFF AND CALLER PUSH20 0xFFFFFFFFFFFFFFFFFFFFFFFFFFFFFFFFFFFFFFFF AND EQ PUSH2 0x4CE JUMPI PUSH1 0x40 MLOAD PUSH32 0x8C379A000000000000000000000000000000000000000000000000000000000 DUP2 MSTORE PUSH1 0x4 ADD DUP1 DUP1 PUSH1 0x20 ADD DUP3 DUP2 SUB DUP3 MSTORE PUSH1 0x15 DUP2 MSTORE PUSH1 0x20 ADD DUP1 PUSH32 0x53656E646572206E6F7420617574686F72697A65640000000000000000000000 DUP2 MSTORE POP PUSH1 0x20 ADD SWAP2 POP POP PUSH1 0x40 MLOAD DUP1 SWAP2 SUB SWAP1 REVERT JUMPDEST PUSH1 0x1 PUSH1 0x2 PUSH1 0x14 PUSH2 0x100 EXP DUP2 SLOAD DUP2 PUSH1 0xFF MUL NOT AND SWAP1 DUP4 ISZERO ISZERO MUL OR SWAP1 SSTORE POP JUMP JUMPDEST PUSH1 0x60 PUSH1 0x3 DUP1 SLOAD PUSH1 0x1 DUP2 PUSH1 0x1 AND ISZERO PUSH2 0x100 MUL SUB AND PUSH1 0x2 SWAP1 DIV DUP1 PUSH1 0x1F ADD PUSH1 0x20 DUP1 SWAP2 DIV MUL PUSH1 0x20 ADD PUSH1 0x40 MLOAD SWAP1 DUP2 ADD PUSH1 0x40 MSTORE DUP1 SWAP3 SWAP2 SWAP1 DUP2 DUP2 MSTORE PUSH1 0x20 ADD DUP3 DUP1 SLOAD PUSH1 0x1 DUP2 PUSH1 0x1 AND ISZERO PUSH2 0x100 MUL SUB AND PUSH1 0x2 SWAP1 DIV DUP1 ISZERO PUSH2 0x583 JUMPI DUP1 PUSH1 0x1F LT PUSH2 0x558 JUMPI PUSH2 0x100 DUP1 DUP4 SLOAD DIV MUL DUP4 MSTORE SWAP2 PUSH1 0x20 ADD SWAP2 PUSH2 0x583 JUMP JUMPDEST DUP3 ADD SWAP2 SWAP1 PUSH1 0x0 MSTORE PUSH1 0x20 PUSH1 0x0 KECCAK256 SWAP1 JUMPDEST DUP2 SLOAD DUP2 MSTORE SWAP1 PUSH1 0x1 ADD SWAP1 PUSH1 0x20 ADD DUP1 DUP4 GT PUSH2 0x566 JUMPI DUP3 SWAP1 SUB PUSH1 0x1F AND DUP3 ADD SWAP2 JUMPDEST POP POP POP POP POP SWAP1 POP SWAP1 JUMP JUMPDEST DUP3 DUP1 SLOAD PUSH1 0x1 DUP2 PUSH1 0x1 AND ISZERO PUSH2 0x100 MUL SUB AND PUSH1 0x2 SWAP1 DIV SWAP1 PUSH1 0x0 MSTORE PUSH1 0x20 PUSH1 0x0 KECCAK256 SWAP1 PUSH1 0x1F ADD PUSH1 0x20 SWAP1 DIV DUP2 ADD SWAP3 DUP3 PUSH1 0x1F LT PUSH2 0x5CE JUMPI DUP1 MLOAD PUSH1 0xFF NOT AND DUP4 DUP1 ADD OR DUP6 SSTORE PUSH2 0x5FC JUMP JUMPDEST DUP3 DUP1 ADD PUSH1 0x1 ADD DUP6 SSTORE DUP3 ISZERO PUSH2 0x5FC JUMPI SWAP2 DUP3 ADD JUMPDEST DUP3 DUP2 GT ISZERO PUSH2 0x5FB JUMPI DUP3 MLOAD DUP3 SSTORE SWAP2 PUSH1 0x20 ADD SWAP2 SWAP1 PUSH1 0x1 ADD SWAP1 PUSH2 0x5E0 JUMP JUMPDEST JUMPDEST POP SWAP1 POP PUSH2 0x609 SWAP2 SWAP1 PUSH2 0x60D JUMP JUMPDEST POP SWAP1 JUMP JUMPDEST PUSH2 0x62F SWAP2 SWAP1 JUMPDEST DUP1 DUP3 GT ISZERO PUSH2 0x62B JUMPI PUSH1 0x0 DUP2 PUSH1 0x0 SWAP1 SSTORE POP PUSH1 0x1 ADD PUSH2 0x613 JUMP JUMPDEST POP SWAP1 JUMP JUMPDEST SWAP1 JUMP INVALID LOG2 PUSH5 0x6970667358 0x22 SLT KECCAK256 0xD GT 0xE2 DUP10 0x1E SSTORE DUP8 0x29 SWAP1 0x2E 0xB6 DUP1 CALLER 0xDD PUSH19 0xC61AD08DA92E8B360350BB06E8E68026736473 PUSH16 0x6C634300060000330000000000000000 "},"gasEstimates":{"creation":{"codeDepositCost":"328000","executionCost":"42149","totalCost":"370149"},"external":{"ApprovalStatus()":"infinite","GenerateEVAddress()":"42914","RegisterDistributor()":"21010","SetApplicationStatus()":"21975","VehicleApproval()":"infinite"}},"methodIdentifiers":{"ApprovalStatus()":"75afc08d","GenerateEVAddress()":"0250f922","RegisterDistributor()":"2a9e9141","SetApplicationStatus()":"7169b7ee","VehicleApproval()":"5e84ab17"}},"storageLayout":{"storage":[{"astId":185,"contract":"EVSupplyChain.sol:EVPurchase","label":"Manufacturer","offset":0,"slot":"0","type":"t_address"},{"astId":187,"contract":"EVSupplyChain.sol:EVPurchase","label":"ElectricVehicle","offset":0,"slot":"1","type":"t_address"},{"astId":189,"contract":"EVSupplyChain.sol:EVPurchase","label":"Distributor","offset":0,"slot":"2","type":"t_address"},{"astId":192,"contract":"EVSupplyChain.sol:EVPurchase","label":"ApplicationStatus","offset":20,"slot":"2","type":"t_bool"},{"astId":194,"contract":"EVSupplyChain.sol:EVPurchase","label":"RoadTransportApproval","offset":21,"slot":"2","type":"t_bool"},{"astId":196,"contract":"EVSupplyChain.sol:EVPurchase","label":"ApplicationApproval","offset":0,"slot":"3","type":"t_string_storage"}],"types":{"t_address":{"encoding":"inplace","label":"address","numberOfBytes":"20"},"t_bool":{"encoding":"inplace","label":"bool","numberOfBytes":"1"},"t_string_storage":{"encoding":"bytes","label":"string","numberOfBytes":"32"}}},"userdoc":{"methods":{}}}